{
  "contractName": "OrganChain",
  "abi": [
    {
      "inputs": [
        {
          "internalType": "address",
          "name": "_admin",
          "type": "address"
        }
      ],
      "stateMutability": "nonpayable",
      "type": "constructor"
    },
    {
      "inputs": [
        {
          "internalType": "address",
          "name": "sender",
          "type": "address"
        },
        {
          "internalType": "uint256",
          "name": "tokenId",
          "type": "uint256"
        },
        {
          "internalType": "address",
          "name": "owner",
          "type": "address"
        }
      ],
      "name": "ERC721IncorrectOwner",
      "type": "error"
    },
    {
      "inputs": [
        {
          "internalType": "address",
          "name": "operator",
          "type": "address"
        },
        {
          "internalType": "uint256",
          "name": "tokenId",
          "type": "uint256"
        }
      ],
      "name": "ERC721InsufficientApproval",
      "type": "error"
    },
    {
      "inputs": [
        {
          "internalType": "address",
          "name": "approver",
          "type": "address"
        }
      ],
      "name": "ERC721InvalidApprover",
      "type": "error"
    },
    {
      "inputs": [
        {
          "internalType": "address",
          "name": "operator",
          "type": "address"
        }
      ],
      "name": "ERC721InvalidOperator",
      "type": "error"
    },
    {
      "inputs": [
        {
          "internalType": "address",
          "name": "owner",
          "type": "address"
        }
      ],
      "name": "ERC721InvalidOwner",
      "type": "error"
    },
    {
      "inputs": [
        {
          "internalType": "address",
          "name": "receiver",
          "type": "address"
        }
      ],
      "name": "ERC721InvalidReceiver",
      "type": "error"
    },
    {
      "inputs": [
        {
          "internalType": "address",
          "name": "sender",
          "type": "address"
        }
      ],
      "name": "ERC721InvalidSender",
      "type": "error"
    },
    {
      "inputs": [
        {
          "internalType": "uint256",
          "name": "tokenId",
          "type": "uint256"
        }
      ],
      "name": "ERC721NonexistentToken",
      "type": "error"
    },
    {
      "anonymous": false,
      "inputs": [
        {
          "indexed": true,
          "internalType": "address",
          "name": "owner",
          "type": "address"
        },
        {
          "indexed": true,
          "internalType": "address",
          "name": "approved",
          "type": "address"
        },
        {
          "indexed": true,
          "internalType": "uint256",
          "name": "tokenId",
          "type": "uint256"
        }
      ],
      "name": "Approval",
      "type": "event"
    },
    {
      "anonymous": false,
      "inputs": [
        {
          "indexed": true,
          "internalType": "address",
          "name": "owner",
          "type": "address"
        },
        {
          "indexed": true,
          "internalType": "address",
          "name": "operator",
          "type": "address"
        },
        {
          "indexed": false,
          "internalType": "bool",
          "name": "approved",
          "type": "bool"
        }
      ],
      "name": "ApprovalForAll",
      "type": "event"
    },
    {
      "anonymous": false,
      "inputs": [
        {
          "indexed": true,
          "internalType": "uint256",
          "name": "organId",
          "type": "uint256"
        },
        {
          "indexed": true,
          "internalType": "address",
          "name": "donor",
          "type": "address"
        },
        {
          "indexed": true,
          "internalType": "address",
          "name": "recipient",
          "type": "address"
        }
      ],
      "name": "OrganTransplanted",
      "type": "event"
    },
    {
      "anonymous": false,
      "inputs": [
        {
          "indexed": true,
          "internalType": "uint256",
          "name": "organId",
          "type": "uint256"
        },
        {
          "indexed": true,
          "internalType": "address",
          "name": "donor",
          "type": "address"
        },
        {
          "indexed": false,
          "internalType": "string",
          "name": "organType",
          "type": "string"
        }
      ],
      "name": "StatusUpdated",
      "type": "event"
    },
    {
      "anonymous": false,
      "inputs": [
        {
          "indexed": true,
          "internalType": "address",
          "name": "from",
          "type": "address"
        },
        {
          "indexed": true,
          "internalType": "address",
          "name": "to",
          "type": "address"
        },
        {
          "indexed": true,
          "internalType": "uint256",
          "name": "tokenId",
          "type": "uint256"
        }
      ],
      "name": "Transfer",
      "type": "event"
    },
    {
      "inputs": [],
      "name": "admin",
      "outputs": [
        {
          "internalType": "address",
          "name": "",
          "type": "address"
        }
      ],
      "stateMutability": "view",
      "type": "function"
    },
    {
      "inputs": [
        {
          "internalType": "address",
          "name": "to",
          "type": "address"
        },
        {
          "internalType": "uint256",
          "name": "tokenId",
          "type": "uint256"
        }
      ],
      "name": "approve",
      "outputs": [],
      "stateMutability": "nonpayable",
      "type": "function"
    },
    {
      "inputs": [
        {
          "internalType": "address",
          "name": "owner",
          "type": "address"
        }
      ],
      "name": "balanceOf",
      "outputs": [
        {
          "internalType": "uint256",
          "name": "",
          "type": "uint256"
        }
      ],
      "stateMutability": "view",
      "type": "function"
    },
    {
      "inputs": [],
      "name": "donorCounter",
      "outputs": [
        {
          "internalType": "uint256",
          "name": "",
          "type": "uint256"
        }
      ],
      "stateMutability": "view",
      "type": "function"
    },
    {
      "inputs": [
        {
          "internalType": "uint256",
          "name": "tokenId",
          "type": "uint256"
        }
      ],
      "name": "getApproved",
      "outputs": [
        {
          "internalType": "address",
          "name": "",
          "type": "address"
        }
      ],
      "stateMutability": "view",
      "type": "function"
    },
    {
      "inputs": [
        {
          "internalType": "address",
          "name": "owner",
          "type": "address"
        },
        {
          "internalType": "address",
          "name": "operator",
          "type": "address"
        }
      ],
      "name": "isApprovedForAll",
      "outputs": [
        {
          "internalType": "bool",
          "name": "",
          "type": "bool"
        }
      ],
      "stateMutability": "view",
      "type": "function"
    },
    {
      "inputs": [
        {
          "internalType": "address",
          "name": "",
          "type": "address"
        }
      ],
      "name": "isHospital",
      "outputs": [
        {
          "internalType": "bool",
          "name": "",
          "type": "bool"
        }
      ],
      "stateMutability": "view",
      "type": "function"
    },
    {
      "inputs": [],
      "name": "name",
      "outputs": [
        {
          "internalType": "string",
          "name": "",
          "type": "string"
        }
      ],
      "stateMutability": "view",
      "type": "function"
    },
    {
      "inputs": [
        {
          "internalType": "uint256",
          "name": "",
          "type": "uint256"
        }
      ],
      "name": "organs",
      "outputs": [
        {
          "internalType": "uint256",
          "name": "id",
          "type": "uint256"
        },
        {
          "internalType": "address",
          "name": "donor",
          "type": "address"
        },
        {
          "internalType": "string",
          "name": "donorName",
          "type": "string"
        },
        {
          "internalType": "string",
          "name": "donorAadharNumber",
          "type": "string"
        },
        {
          "internalType": "string",
          "name": "organType",
          "type": "string"
        },
        {
          "internalType": "uint256",
          "name": "preservationTime",
          "type": "uint256"
        },
        {
          "internalType": "uint256",
          "name": "timestamp",
          "type": "uint256"
        },
        {
          "internalType": "enum OrganChain.OrganStatus",
          "name": "status",
          "type": "uint8"
        },
        {
          "internalType": "address",
          "name": "to",
          "type": "address"
        }
      ],
      "stateMutability": "view",
      "type": "function"
    },
    {
      "inputs": [
        {
          "internalType": "uint256",
          "name": "tokenId",
          "type": "uint256"
        }
      ],
      "name": "ownerOf",
      "outputs": [
        {
          "internalType": "address",
          "name": "",
          "type": "address"
        }
      ],
      "stateMutability": "view",
      "type": "function"
    },
    {
      "inputs": [
        {
          "internalType": "uint256",
          "name": "",
          "type": "uint256"
        }
      ],
      "name": "recipient",
      "outputs": [
        {
          "internalType": "uint256",
          "name": "id",
          "type": "uint256"
        },
        {
          "internalType": "address",
          "name": "recipient",
          "type": "address"
        },
        {
          "internalType": "string",
          "name": "recipientName",
          "type": "string"
        },
        {
          "internalType": "string",
          "name": "recipientAadharnumber",
          "type": "string"
        },
        {
          "internalType": "string",
          "name": "organType",
          "type": "string"
        },
        {
          "internalType": "uint256",
          "name": "timestamp",
          "type": "uint256"
        },
        {
          "internalType": "enum OrganChain.RecipientStatus",
          "name": "status",
          "type": "uint8"
        },
        {
          "internalType": "address",
          "name": "from",
          "type": "address"
        }
      ],
      "stateMutability": "view",
      "type": "function"
    },
    {
      "inputs": [],
      "name": "recipientCounter",
      "outputs": [
        {
          "internalType": "uint256",
          "name": "",
          "type": "uint256"
        }
      ],
      "stateMutability": "view",
      "type": "function"
    },
    {
      "inputs": [
        {
          "internalType": "address",
          "name": "from",
          "type": "address"
        },
        {
          "internalType": "address",
          "name": "to",
          "type": "address"
        },
        {
          "internalType": "uint256",
          "name": "tokenId",
          "type": "uint256"
        }
      ],
      "name": "safeTransferFrom",
      "outputs": [],
      "stateMutability": "nonpayable",
      "type": "function"
    },
    {
      "inputs": [
        {
          "internalType": "address",
          "name": "from",
          "type": "address"
        },
        {
          "internalType": "address",
          "name": "to",
          "type": "address"
        },
        {
          "internalType": "uint256",
          "name": "tokenId",
          "type": "uint256"
        },
        {
          "internalType": "bytes",
          "name": "data",
          "type": "bytes"
        }
      ],
      "name": "safeTransferFrom",
      "outputs": [],
      "stateMutability": "nonpayable",
      "type": "function"
    },
    {
      "inputs": [
        {
          "internalType": "address",
          "name": "operator",
          "type": "address"
        },
        {
          "internalType": "bool",
          "name": "approved",
          "type": "bool"
        }
      ],
      "name": "setApprovalForAll",
      "outputs": [],
      "stateMutability": "nonpayable",
      "type": "function"
    },
    {
      "inputs": [
        {
          "internalType": "bytes4",
          "name": "interfaceId",
          "type": "bytes4"
        }
      ],
      "name": "supportsInterface",
      "outputs": [
        {
          "internalType": "bool",
          "name": "",
          "type": "bool"
        }
      ],
      "stateMutability": "view",
      "type": "function"
    },
    {
      "inputs": [],
      "name": "symbol",
      "outputs": [
        {
          "internalType": "string",
          "name": "",
          "type": "string"
        }
      ],
      "stateMutability": "view",
      "type": "function"
    },
    {
      "inputs": [
        {
          "internalType": "uint256",
          "name": "tokenId",
          "type": "uint256"
        }
      ],
      "name": "tokenURI",
      "outputs": [
        {
          "internalType": "string",
          "name": "",
          "type": "string"
        }
      ],
      "stateMutability": "view",
      "type": "function"
    },
    {
      "inputs": [
        {
          "internalType": "address",
          "name": "from",
          "type": "address"
        },
        {
          "internalType": "address",
          "name": "to",
          "type": "address"
        },
        {
          "internalType": "uint256",
          "name": "tokenId",
          "type": "uint256"
        }
      ],
      "name": "transferFrom",
      "outputs": [],
      "stateMutability": "nonpayable",
      "type": "function"
    },
    {
      "inputs": [
        {
          "internalType": "string",
          "name": "_recipientName",
          "type": "string"
        },
        {
          "internalType": "address",
          "name": "_recipientAddress",
          "type": "address"
        },
        {
          "internalType": "string",
          "name": "_recipientAadharNumber",
          "type": "string"
        },
        {
          "internalType": "string",
          "name": "_organType",
          "type": "string"
        }
      ],
      "name": "registerRecipient",
      "outputs": [],
      "stateMutability": "nonpayable",
      "type": "function"
    },
    {
      "inputs": [
        {
          "internalType": "string",
          "name": "_donorName",
          "type": "string"
        },
        {
          "internalType": "address",
          "name": "_donorAddress",
          "type": "address"
        },
        {
          "internalType": "string",
          "name": "_donorAadharNumber",
          "type": "string"
        },
        {
          "internalType": "string",
          "name": "_organType",
          "type": "string"
        }
      ],
      "name": "registerOrgan",
      "outputs": [],
      "stateMutability": "nonpayable",
      "type": "function"
    },
    {
      "inputs": [
        {
          "internalType": "address",
          "name": "_hospital",
          "type": "address"
        }
      ],
      "name": "registerHospital",
      "outputs": [],
      "stateMutability": "nonpayable",
      "type": "function"
    },
    {
      "inputs": [
        {
          "internalType": "uint256",
          "name": "_organId",
          "type": "uint256"
        }
      ],
      "name": "updateOrganStatus",
      "outputs": [],
      "stateMutability": "nonpayable",
      "type": "function"
    },
    {
      "inputs": [
        {
          "internalType": "uint256",
          "name": "_organId",
          "type": "uint256"
        },
        {
          "internalType": "uint256",
          "name": "_recipientId",
          "type": "uint256"
        }
      ],
      "name": "transplantOrgan",
      "outputs": [],
      "stateMutability": "nonpayable",
      "type": "function"
    },
    {
      "inputs": [
        {
          "internalType": "address",
          "name": "_donor",
          "type": "address"
        }
      ],
      "name": "isDonor",
      "outputs": [
        {
          "internalType": "bool",
          "name": "",
          "type": "bool"
        }
      ],
      "stateMutability": "view",
      "type": "function"
    },
    {
      "inputs": [
        {
          "internalType": "address",
          "name": "_recipient",
          "type": "address"
        }
      ],
      "name": "isRecipient",
      "outputs": [
        {
          "internalType": "bool",
          "name": "",
          "type": "bool"
        }
      ],
      "stateMutability": "view",
      "type": "function"
    },
    {
      "inputs": [
        {
          "internalType": "address",
          "name": "_donorAddress",
          "type": "address"
        }
      ],
      "name": "getOrganId",
      "outputs": [
        {
          "internalType": "uint256[]",
          "name": "",
          "type": "uint256[]"
        }
      ],
      "stateMutability": "view",
      "type": "function"
    },
    {
      "inputs": [
        {
          "internalType": "address",
          "name": "_recipientAddress",
          "type": "address"
        }
      ],
      "name": "getRecipientId",
      "outputs": [
        {
          "internalType": "uint256[]",
          "name": "",
          "type": "uint256[]"
        }
      ],
      "stateMutability": "view",
      "type": "function"
    },
    {
      "inputs": [],
      "name": "getAvailableOrgans",
      "outputs": [
        {
          "components": [
            {
              "internalType": "uint256",
              "name": "id",
              "type": "uint256"
            },
            {
              "internalType": "address",
              "name": "donor",
              "type": "address"
            },
            {
              "internalType": "string",
              "name": "donorName",
              "type": "string"
            },
            {
              "internalType": "string",
              "name": "donorAadharNumber",
              "type": "string"
            },
            {
              "internalType": "string",
              "name": "organType",
              "type": "string"
            },
            {
              "internalType": "uint256",
              "name": "preservationTime",
              "type": "uint256"
            },
            {
              "internalType": "uint256",
              "name": "timestamp",
              "type": "uint256"
            },
            {
              "internalType": "enum OrganChain.OrganStatus",
              "name": "status",
              "type": "uint8"
            },
            {
              "internalType": "address",
              "name": "to",
              "type": "address"
            }
          ],
          "internalType": "struct OrganChain.Organ[]",
          "name": "",
          "type": "tuple[]"
        }
      ],
      "stateMutability": "view",
      "type": "function"
    },
    {
      "inputs": [],
      "name": "getAvailableRecipients",
      "outputs": [
        {
          "components": [
            {
              "internalType": "uint256",
              "name": "id",
              "type": "uint256"
            },
            {
              "internalType": "address",
              "name": "recipient",
              "type": "address"
            },
            {
              "internalType": "string",
              "name": "recipientName",
              "type": "string"
            },
            {
              "internalType": "string",
              "name": "recipientAadharnumber",
              "type": "string"
            },
            {
              "internalType": "string",
              "name": "organType",
              "type": "string"
            },
            {
              "internalType": "uint256",
              "name": "timestamp",
              "type": "uint256"
            },
            {
              "internalType": "enum OrganChain.RecipientStatus",
              "name": "status",
              "type": "uint8"
            },
            {
              "internalType": "address",
              "name": "from",
              "type": "address"
            }
          ],
          "internalType": "struct OrganChain.Recipient[]",
          "name": "",
          "type": "tuple[]"
        }
      ],
      "stateMutability": "view",
      "type": "function"
    },
    {
      "inputs": [],
      "name": "getAllOrgans",
      "outputs": [
        {
          "components": [
            {
              "internalType": "uint256",
              "name": "id",
              "type": "uint256"
            },
            {
              "internalType": "address",
              "name": "donor",
              "type": "address"
            },
            {
              "internalType": "string",
              "name": "donorName",
              "type": "string"
            },
            {
              "internalType": "string",
              "name": "donorAadharNumber",
              "type": "string"
            },
            {
              "internalType": "string",
              "name": "organType",
              "type": "string"
            },
            {
              "internalType": "uint256",
              "name": "preservationTime",
              "type": "uint256"
            },
            {
              "internalType": "uint256",
              "name": "timestamp",
              "type": "uint256"
            },
            {
              "internalType": "enum OrganChain.OrganStatus",
              "name": "status",
              "type": "uint8"
            },
            {
              "internalType": "address",
              "name": "to",
              "type": "address"
            }
          ],
          "internalType": "struct OrganChain.Organ[]",
          "name": "",
          "type": "tuple[]"
        }
      ],
      "stateMutability": "view",
      "type": "function"
    },
    {
      "inputs": [],
      "name": "getAllRecipients",
      "outputs": [
        {
          "components": [
            {
              "internalType": "uint256",
              "name": "id",
              "type": "uint256"
            },
            {
              "internalType": "address",
              "name": "recipient",
              "type": "address"
            },
            {
              "internalType": "string",
              "name": "recipientName",
              "type": "string"
            },
            {
              "internalType": "string",
              "name": "recipientAadharnumber",
              "type": "string"
            },
            {
              "internalType": "string",
              "name": "organType",
              "type": "string"
            },
            {
              "internalType": "uint256",
              "name": "timestamp",
              "type": "uint256"
            },
            {
              "internalType": "enum OrganChain.RecipientStatus",
              "name": "status",
              "type": "uint8"
            },
            {
              "internalType": "address",
              "name": "from",
              "type": "address"
            }
          ],
          "internalType": "struct OrganChain.Recipient[]",
          "name": "",
          "type": "tuple[]"
        }
      ],
      "stateMutability": "view",
      "type": "function"
    }
  ],
  "bytecode": "0x608060405234801562000010575f80fd5b5060405162005c0838038062005c08833981810160405281019062000036919062000173565b6040518060400160405280600f81526020017f4f7267616e436861696e546f6b656e00000000000000000000000000000000008152506040518060400160405280600381526020017f4f43540000000000000000000000000000000000000000000000000000000000815250815f9081620000b2919062000407565b508060019081620000c4919062000407565b5050508060065f6101000a81548173ffffffffffffffffffffffffffffffffffffffff021916908373ffffffffffffffffffffffffffffffffffffffff16021790555050620004eb565b5f80fd5b5f73ffffffffffffffffffffffffffffffffffffffff82169050919050565b5f6200013d8262000112565b9050919050565b6200014f8162000131565b81146200015a575f80fd5b50565b5f815190506200016d8162000144565b92915050565b5f602082840312156200018b576200018a6200010e565b5b5f6200019a848285016200015d565b91505092915050565b5f81519050919050565b7f4e487b71000000000000000000000000000000000000000000000000000000005f52604160045260245ffd5b7f4e487b71000000000000000000000000000000000000000000000000000000005f52602260045260245ffd5b5f60028204905060018216806200021f57607f821691505b602082108103620002355762000234620001da565b5b50919050565b5f819050815f5260205f209050919050565b5f6020601f8301049050919050565b5f82821b905092915050565b5f60088302620002997fffffffffffffffffffffffffffffffffffffffffffffffffffffffffffffffff826200025c565b620002a586836200025c565b95508019841693508086168417925050509392505050565b5f819050919050565b5f819050919050565b5f620002ef620002e9620002e384620002bd565b620002c6565b620002bd565b9050919050565b5f819050919050565b6200030a83620002cf565b620003226200031982620002f6565b84845462000268565b825550505050565b5f90565b620003386200032a565b62000345818484620002ff565b505050565b5b818110156200036c57620003605f826200032e565b6001810190506200034b565b5050565b601f821115620003bb5762000385816200023b565b62000390846200024d565b81016020851015620003a0578190505b620003b8620003af856200024d565b8301826200034a565b50505b505050565b5f82821c905092915050565b5f620003dd5f1984600802620003c0565b1980831691505092915050565b5f620003f78383620003cc565b9150826002028217905092915050565b6200041282620001a3565b67ffffffffffffffff8111156200042e576200042d620001ad565b5b6200043a825462000207565b6200044782828562000370565b5f60209050601f8311600181146200047d575f841562000468578287015190505b620004748582620003ea565b865550620004e3565b601f1984166200048d866200023b565b5f5b82811015620004b6578489015182556001820191506020850194506020810190506200048f565b86831015620004d65784890151620004d2601f891682620003cc565b8355505b6001600288020188555050505b505050505050565b61570f80620004f95f395ff3fe608060405234801561000f575f80fd5b50600436106101ee575f3560e01c80638c5143ea1161010d578063c5b99858116100a0578063d7043cb01161006f578063d7043cb01461060f578063e985e9c51461062d578063f851a4401461065d578063fe0eb1051461067b576101ee565b8063c5b9985814610575578063c87b56dd14610591578063c9047be7146105c1578063c9bf850d146105df576101ee565b8063b74513c1116100dc578063b74513c1146104d4578063b88d4fde146104f2578063bdf6c6731461050e578063be5e5c1b1461053e576101ee565b80638c5143ea1461044c57806395d89b411461047c578063a22cb4651461049a578063adb9252b146104b6576101ee565b80633c528129116101855780636352211e116101545780636352211e146103a057806363bbd798146103d057806370a08231146104005780637c57ebc814610430576101ee565b80633c5281291461031457806342842e0e146103305780634df1e9e21461034c5780634fbd241d14610368576101ee565b8063095ea7b3116101c1578063095ea7b31461028e57806323b872dd146102aa57806327e4651e146102c65780632bc3d7aa146102e4576101ee565b806301ffc9a7146101f2578063056243341461022257806306fdde0314610240578063081812fc1461025e575b5f80fd5b61020c60048036038101906102079190613f50565b610697565b6040516102199190613f95565b60405180910390f35b61022a610778565b6040516102379190614278565b60405180910390f35b610248610bd3565b60405161025591906142e0565b60405180910390f35b6102786004803603810190610273919061432a565b610c62565b6040516102859190614364565b60405180910390f35b6102a860048036038101906102a391906143a7565b610c7d565b005b6102c460048036038101906102bf91906143e5565b610c93565b005b6102ce610d92565b6040516102db9190614444565b60405180910390f35b6102fe60048036038101906102f9919061445d565b610d98565b60405161030b9190613f95565b60405180910390f35b61032e6004803603810190610329919061432a565b610e42565b005b61034a600480360381019061034591906143e5565b610fb7565b005b610366600480360381019061036191906145b4565b610fd6565b005b610382600480360381019061037d919061432a565b61122e565b604051610397999897969594939291906146b2565b60405180910390f35b6103ba60048036038101906103b5919061432a565b611455565b6040516103c79190614364565b60405180910390f35b6103ea60048036038101906103e5919061445d565b611466565b6040516103f791906147fa565b60405180910390f35b61041a6004803603810190610415919061445d565b611673565b6040516104279190614444565b60405180910390f35b61044a6004803603810190610445919061481a565b611729565b005b6104666004803603810190610461919061445d565b611c56565b6040516104739190613f95565b60405180910390f35b610484611d00565b60405161049191906142e0565b60405180910390f35b6104b460048036038101906104af9190614882565b611d90565b005b6104be611da6565b6040516104cb9190614444565b60405180910390f35b6104dc611dac565b6040516104e99190614278565b60405180910390f35b61050c6004803603810190610507919061495e565b612131565b005b6105286004803603810190610523919061445d565b61214e565b6040516105359190613f95565b60405180910390f35b6105586004803603810190610553919061432a565b61216b565b60405161056c9897969594939291906149ed565b60405180910390f35b61058f600480360381019061058a919061445d565b61238c565b005b6105ab60048036038101906105a6919061432a565b612473565b6040516105b891906142e0565b60405180910390f35b6105c96124d9565b6040516105d69190614c18565b60405180910390f35b6105f960048036038101906105f4919061445d565b612940565b60405161060691906147fa565b60405180910390f35b610617612b4d565b6040516106249190614c18565b60405180910390f35b61064760048036038101906106429190614c38565b612edc565b6040516106549190613f95565b60405180910390f35b610665612f6a565b6040516106729190614364565b60405180910390f35b610695600480360381019061069091906145b4565b612f8f565b005b5f7f80ac58cd000000000000000000000000000000000000000000000000000000007bffffffffffffffffffffffffffffffffffffffffffffffffffffffff1916827bffffffffffffffffffffffffffffffffffffffffffffffffffffffff1916148061076157507f5b5e139f000000000000000000000000000000000000000000000000000000007bffffffffffffffffffffffffffffffffffffffffffffffffffffffff1916827bffffffffffffffffffffffffffffffffffffffffffffffffffffffff1916145b806107715750610770826131d5565b5b9050919050565b60605f805f600190505b60016008546107919190614ca3565b811015610805575f60018111156107ab576107aa6140b8565b5b600a5f8381526020019081526020015f206006015f9054906101000a900460ff1660018111156107de576107dd6140b8565b5b036107f25782806107ee90614cd6565b9350505b80806107fd90614cd6565b915050610782565b505f8267ffffffffffffffff81111561082157610820614490565b5b60405190808252806020026020018201604052801561085a57816020015b610847613de8565b81526020019060019003908161083f5790505b5090505f600190505b60016008546108729190614ca3565b811015610bc9575f600181111561088c5761088b6140b8565b5b600a5f8381526020019081526020015f206006015f9054906101000a900460ff1660018111156108bf576108be6140b8565b5b03610bb657600a5f8281526020019081526020015f20604051806101000160405290815f8201548152602001600182015f9054906101000a900473ffffffffffffffffffffffffffffffffffffffff1673ffffffffffffffffffffffffffffffffffffffff1673ffffffffffffffffffffffffffffffffffffffff16815260200160028201805461094f90614d4a565b80601f016020809104026020016040519081016040528092919081815260200182805461097b90614d4a565b80156109c65780601f1061099d576101008083540402835291602001916109c6565b820191905f5260205f20905b8154815290600101906020018083116109a957829003601f168201915b505050505081526020016003820180546109df90614d4a565b80601f0160208091040260200160405190810160405280929190818152602001828054610a0b90614d4a565b8015610a565780601f10610a2d57610100808354040283529160200191610a56565b820191905f5260205f20905b815481529060010190602001808311610a3957829003601f168201915b50505050508152602001600482018054610a6f90614d4a565b80601f0160208091040260200160405190810160405280929190818152602001828054610a9b90614d4a565b8015610ae65780601f10610abd57610100808354040283529160200191610ae6565b820191905f5260205f20905b815481529060010190602001808311610ac957829003601f168201915b5050505050815260200160058201548152602001600682015f9054906101000a900460ff166001811115610b1d57610b1c6140b8565b5b6001811115610b2f57610b2e6140b8565b5b81526020016006820160019054906101000a900473ffffffffffffffffffffffffffffffffffffffff1673ffffffffffffffffffffffffffffffffffffffff1673ffffffffffffffffffffffffffffffffffffffff1681525050828481518110610b9c57610b9b614d7a565b5b60200260200101819052508280610bb290614cd6565b9350505b8080610bc190614cd6565b915050610863565b5080935050505090565b60605f8054610be190614d4a565b80601f0160208091040260200160405190810160405280929190818152602001828054610c0d90614d4a565b8015610c585780601f10610c2f57610100808354040283529160200191610c58565b820191905f5260205f20905b815481529060010190602001808311610c3b57829003601f168201915b5050505050905090565b5f610c6c8261323e565b50610c76826132c4565b9050919050565b610c8f8282610c8a6132fd565b613304565b5050565b5f73ffffffffffffffffffffffffffffffffffffffff168273ffffffffffffffffffffffffffffffffffffffff1603610d03575f6040517f64a0ae92000000000000000000000000000000000000000000000000000000008152600401610cfa9190614364565b60405180910390fd5b5f610d168383610d116132fd565b613316565b90508373ffffffffffffffffffffffffffffffffffffffff168173ffffffffffffffffffffffffffffffffffffffff1614610d8c578382826040517f64283d7b000000000000000000000000000000000000000000000000000000008152600401610d8393929190614da7565b60405180910390fd5b50505050565b60085481565b5f80600190505b6001600754610dae9190614ca3565b811015610e38578273ffffffffffffffffffffffffffffffffffffffff1660095f8381526020019081526020015f206001015f9054906101000a900473ffffffffffffffffffffffffffffffffffffffff1673ffffffffffffffffffffffffffffffffffffffff1603610e25576001915050610e3d565b8080610e3090614cd6565b915050610d9f565b505f90505b919050565b5f73ffffffffffffffffffffffffffffffffffffffff1660095f8381526020019081526020015f206001015f9054906101000a900473ffffffffffffffffffffffffffffffffffffffff1673ffffffffffffffffffffffffffffffffffffffff1603610ee3576040517f08c379a0000000000000000000000000000000000000000000000000000000008152600401610eda90614e26565b60405180910390fd5b600160095f8381526020019081526020015f206007015f6101000a81548160ff02191690836002811115610f1a57610f196140b8565b5b021790555060095f8281526020019081526020015f206001015f9054906101000a900473ffffffffffffffffffffffffffffffffffffffff1673ffffffffffffffffffffffffffffffffffffffff16817f714869395fe61f1b62181a84c746abf3e2e0352a98fceb72add62790bc23e0f760095f8581526020019081526020015f20600401604051610fac9190614ed7565b60405180910390a350565b610fd183838360405180602001604052805f815250612131565b505050565b600b5f3373ffffffffffffffffffffffffffffffffffffffff1673ffffffffffffffffffffffffffffffffffffffff1681526020019081526020015f205f9054906101000a900460ff1661105f576040517f08c379a000000000000000000000000000000000000000000000000000000000815260040161105690614f67565b60405180910390fd5b60075f81548092919061107190614cd6565b919050555060405180610120016040528060075481526020018473ffffffffffffffffffffffffffffffffffffffff168152602001858152602001838152602001828152602001600681526020014281526020015f60028111156110d8576110d76140b8565b5b81526020015f73ffffffffffffffffffffffffffffffffffffffff1681525060095f60075481526020019081526020015f205f820151815f01556020820151816001015f6101000a81548173ffffffffffffffffffffffffffffffffffffffff021916908373ffffffffffffffffffffffffffffffffffffffff160217905550604082015181600201908161116d9190615110565b5060608201518160030190816111839190615110565b5060808201518160040190816111999190615110565b5060a0820151816005015560c0820151816006015560e0820151816007015f6101000a81548160ff021916908360028111156111d8576111d76140b8565b5b02179055506101008201518160070160016101000a81548173ffffffffffffffffffffffffffffffffffffffff021916908373ffffffffffffffffffffffffffffffffffffffff16021790555090505050505050565b6009602052805f5260405f205f91509050805f015490806001015f9054906101000a900473ffffffffffffffffffffffffffffffffffffffff169080600201805461127890614d4a565b80601f01602080910402602001604051908101604052809291908181526020018280546112a490614d4a565b80156112ef5780601f106112c6576101008083540402835291602001916112ef565b820191905f5260205f20905b8154815290600101906020018083116112d257829003601f168201915b50505050509080600301805461130490614d4a565b80601f016020809104026020016040519081016040528092919081815260200182805461133090614d4a565b801561137b5780601f106113525761010080835404028352916020019161137b565b820191905f5260205f20905b81548152906001019060200180831161135e57829003601f168201915b50505050509080600401805461139090614d4a565b80601f01602080910402602001604051908101604052809291908181526020018280546113bc90614d4a565b80156114075780601f106113de57610100808354040283529160200191611407565b820191905f5260205f20905b8154815290600101906020018083116113ea57829003601f168201915b505050505090806005015490806006015490806007015f9054906101000a900460ff16908060070160019054906101000a900473ffffffffffffffffffffffffffffffffffffffff16905089565b5f61145f8261323e565b9050919050565b606061147182611c56565b6114b0576040517f08c379a00000000000000000000000000000000000000000000000000000000081526004016114a790615229565b60405180910390fd5b5f60085467ffffffffffffffff8111156114cd576114cc614490565b5b6040519080825280602002602001820160405280156114fb5781602001602082028036833780820191505090505b5090505f80600190505b60016007546115149190614ca3565b8110156115c3578473ffffffffffffffffffffffffffffffffffffffff16600a5f8381526020019081526020015f206001015f9054906101000a900473ffffffffffffffffffffffffffffffffffffffff1673ffffffffffffffffffffffffffffffffffffffff16036115b0578083838151811061159557611594614d7a565b5b60200260200101818152505081806115ac90614cd6565b9250505b80806115bb90614cd6565b915050611505565b505f8167ffffffffffffffff8111156115df576115de614490565b5b60405190808252806020026020018201604052801561160d5781602001602082028036833780820191505090505b5090505f5b828110156116675783818151811061162d5761162c614d7a565b5b602002602001015182828151811061164857611647614d7a565b5b602002602001018181525050808061165f90614cd6565b915050611612565b50809350505050919050565b5f8073ffffffffffffffffffffffffffffffffffffffff168273ffffffffffffffffffffffffffffffffffffffff16036116e4575f6040517f89c62b640000000000000000000000000000000000000000000000000000000081526004016116db9190614364565b60405180910390fd5b60035f8373ffffffffffffffffffffffffffffffffffffffff1673ffffffffffffffffffffffffffffffffffffffff1681526020019081526020015f20549050919050565b600b5f3373ffffffffffffffffffffffffffffffffffffffff1673ffffffffffffffffffffffffffffffffffffffff1681526020019081526020015f205f9054906101000a900460ff166117b2576040517f08c379a00000000000000000000000000000000000000000000000000000000081526004016117a990614f67565b60405180910390fd5b5f73ffffffffffffffffffffffffffffffffffffffff1660095f8481526020019081526020015f206001015f9054906101000a900473ffffffffffffffffffffffffffffffffffffffff1673ffffffffffffffffffffffffffffffffffffffff1603611853576040517f08c379a000000000000000000000000000000000000000000000000000000000815260040161184a90614e26565b60405180910390fd5b5f73ffffffffffffffffffffffffffffffffffffffff16600a5f8381526020019081526020015f206001015f9054906101000a900473ffffffffffffffffffffffffffffffffffffffff1673ffffffffffffffffffffffffffffffffffffffff16036118f4576040517f08c379a00000000000000000000000000000000000000000000000000000000081526004016118eb90615291565b60405180910390fd5b600a5f8281526020019081526020015f20600401604051611915919061534b565b604051809103902060095f8481526020019081526020015f2060040160405161193e919061534b565b604051809103902014611986576040517f08c379a000000000000000000000000000000000000000000000000000000000815260040161197d906153d1565b60405180910390fd5b6001600281111561199a576119996140b8565b5b60095f8481526020019081526020015f206007015f9054906101000a900460ff1660028111156119cd576119cc6140b8565b5b14611a0d576040517f08c379a0000000000000000000000000000000000000000000000000000000008152600401611a0490615439565b60405180910390fd5b600260095f8481526020019081526020015f206007015f6101000a81548160ff02191690836002811115611a4457611a436140b8565b5b0217905550600a5f8281526020019081526020015f206001015f9054906101000a900473ffffffffffffffffffffffffffffffffffffffff1660095f8481526020019081526020015f2060070160016101000a81548173ffffffffffffffffffffffffffffffffffffffff021916908373ffffffffffffffffffffffffffffffffffffffff1602179055506001600a5f8381526020019081526020015f206006015f6101000a81548160ff02191690836001811115611b0657611b056140b8565b5b021790555060095f8381526020019081526020015f206001015f9054906101000a900473ffffffffffffffffffffffffffffffffffffffff16600a5f8381526020019081526020015f2060060160016101000a81548173ffffffffffffffffffffffffffffffffffffffff021916908373ffffffffffffffffffffffffffffffffffffffff160217905550600a5f8281526020019081526020015f206001015f9054906101000a900473ffffffffffffffffffffffffffffffffffffffff1673ffffffffffffffffffffffffffffffffffffffff1660095f8481526020019081526020015f206001015f9054906101000a900473ffffffffffffffffffffffffffffffffffffffff1673ffffffffffffffffffffffffffffffffffffffff16837f0fd856f006be5ecb249f385f01af10c24b0690f4b3f5fd630a83de52870cfe7c60405160405180910390a45050565b5f80600190505b6001600854611c6c9190614ca3565b811015611cf6578273ffffffffffffffffffffffffffffffffffffffff16600a5f8381526020019081526020015f206001015f9054906101000a900473ffffffffffffffffffffffffffffffffffffffff1673ffffffffffffffffffffffffffffffffffffffff1603611ce3576001915050611cfb565b8080611cee90614cd6565b915050611c5d565b505f90505b919050565b606060018054611d0f90614d4a565b80601f0160208091040260200160405190810160405280929190818152602001828054611d3b90614d4a565b8015611d865780601f10611d5d57610100808354040283529160200191611d86565b820191905f5260205f20905b815481529060010190602001808311611d6957829003601f168201915b5050505050905090565b611da2611d9b6132fd565b8383613521565b5050565b60075481565b60605f8060085467ffffffffffffffff811115611dcc57611dcb614490565b5b604051908082528060200260200182016040528015611e0557816020015b611df2613de8565b815260200190600190039081611dea5790505b5090505f600190505b6001600854611e1d9190614ca3565b81101561212857600a5f8281526020019081526020015f20604051806101000160405290815f8201548152602001600182015f9054906101000a900473ffffffffffffffffffffffffffffffffffffffff1673ffffffffffffffffffffffffffffffffffffffff1673ffffffffffffffffffffffffffffffffffffffff168152602001600282018054611eaf90614d4a565b80601f0160208091040260200160405190810160405280929190818152602001828054611edb90614d4a565b8015611f265780601f10611efd57610100808354040283529160200191611f26565b820191905f5260205f20905b815481529060010190602001808311611f0957829003601f168201915b50505050508152602001600382018054611f3f90614d4a565b80601f0160208091040260200160405190810160405280929190818152602001828054611f6b90614d4a565b8015611fb65780601f10611f8d57610100808354040283529160200191611fb6565b820191905f5260205f20905b815481529060010190602001808311611f9957829003601f168201915b50505050508152602001600482018054611fcf90614d4a565b80601f0160208091040260200160405190810160405280929190818152602001828054611ffb90614d4a565b80156120465780601f1061201d57610100808354040283529160200191612046565b820191905f5260205f20905b81548152906001019060200180831161202957829003601f168201915b5050505050815260200160058201548152602001600682015f9054906101000a900460ff16600181111561207d5761207c6140b8565b5b600181111561208f5761208e6140b8565b5b81526020016006820160019054906101000a900473ffffffffffffffffffffffffffffffffffffffff1673ffffffffffffffffffffffffffffffffffffffff1673ffffffffffffffffffffffffffffffffffffffff16815250508284815181106120fc576120fb614d7a565b5b6020026020010181905250828061211290614cd6565b935050808061212090614cd6565b915050611e0e565b50809250505090565b61213c848484610c93565b6121488484848461368a565b50505050565b600b602052805f5260405f205f915054906101000a900460ff1681565b600a602052805f5260405f205f91509050805f015490806001015f9054906101000a900473ffffffffffffffffffffffffffffffffffffffff16908060020180546121b590614d4a565b80601f01602080910402602001604051908101604052809291908181526020018280546121e190614d4a565b801561222c5780601f106122035761010080835404028352916020019161222c565b820191905f5260205f20905b81548152906001019060200180831161220f57829003601f168201915b50505050509080600301805461224190614d4a565b80601f016020809104026020016040519081016040528092919081815260200182805461226d90614d4a565b80156122b85780601f1061228f576101008083540402835291602001916122b8565b820191905f5260205f20905b81548152906001019060200180831161229b57829003601f168201915b5050505050908060040180546122cd90614d4a565b80601f01602080910402602001604051908101604052809291908181526020018280546122f990614d4a565b80156123445780601f1061231b57610100808354040283529160200191612344565b820191905f5260205f20905b81548152906001019060200180831161232757829003601f168201915b505050505090806005015490806006015f9054906101000a900460ff16908060060160019054906101000a900473ffffffffffffffffffffffffffffffffffffffff16905088565b60065f9054906101000a900473ffffffffffffffffffffffffffffffffffffffff1673ffffffffffffffffffffffffffffffffffffffff163373ffffffffffffffffffffffffffffffffffffffff161461241b576040517f08c379a0000000000000000000000000000000000000000000000000000000008152600401612412906154c7565b60405180910390fd5b6001600b5f8373ffffffffffffffffffffffffffffffffffffffff1673ffffffffffffffffffffffffffffffffffffffff1681526020019081526020015f205f6101000a81548160ff02191690831515021790555050565b606061247e8261323e565b505f61248861383c565b90505f8151116124a65760405180602001604052805f8152506124d1565b806124b084613852565b6040516020016124c192919061551f565b6040516020818303038152906040525b915050919050565b60605f805f600190505b60016007546124f29190614ca3565b811015612567576001600281111561250d5761250c6140b8565b5b60095f8381526020019081526020015f206007015f9054906101000a900460ff1660028111156125405761253f6140b8565b5b0361255457828061255090614cd6565b9350505b808061255f90614cd6565b9150506124e3565b505f8267ffffffffffffffff81111561258357612582614490565b5b6040519080825280602002602001820160405280156125bc57816020015b6125a9613e66565b8152602001906001900390816125a15790505b5090505f600190505b60016007546125d49190614ca3565b81101561293657600160028111156125ef576125ee6140b8565b5b60095f8381526020019081526020015f206007015f9054906101000a900460ff166002811115612622576126216140b8565b5b036129235760095f8281526020019081526020015f20604051806101200160405290815f8201548152602001600182015f9054906101000a900473ffffffffffffffffffffffffffffffffffffffff1673ffffffffffffffffffffffffffffffffffffffff1673ffffffffffffffffffffffffffffffffffffffff1681526020016002820180546126b290614d4a565b80601f01602080910402602001604051908101604052809291908181526020018280546126de90614d4a565b80156127295780601f1061270057610100808354040283529160200191612729565b820191905f5260205f20905b81548152906001019060200180831161270c57829003601f168201915b5050505050815260200160038201805461274290614d4a565b80601f016020809104026020016040519081016040528092919081815260200182805461276e90614d4a565b80156127b95780601f10612790576101008083540402835291602001916127b9565b820191905f5260205f20905b81548152906001019060200180831161279c57829003601f168201915b505050505081526020016004820180546127d290614d4a565b80601f01602080910402602001604051908101604052809291908181526020018280546127fe90614d4a565b80156128495780601f1061282057610100808354040283529160200191612849565b820191905f5260205f20905b81548152906001019060200180831161282c57829003601f168201915b505050505081526020016005820154815260200160068201548152602001600782015f9054906101000a900460ff16600281111561288a576128896140b8565b5b600281111561289c5761289b6140b8565b5b81526020016007820160019054906101000a900473ffffffffffffffffffffffffffffffffffffffff1673ffffffffffffffffffffffffffffffffffffffff1673ffffffffffffffffffffffffffffffffffffffff168152505082848151811061290957612908614d7a565b5b6020026020010181905250828061291f90614cd6565b9350505b808061292e90614cd6565b9150506125c5565b5080935050505090565b606061294b82610d98565b61298a576040517f08c379a00000000000000000000000000000000000000000000000000000000081526004016129819061558c565b60405180910390fd5b5f60075467ffffffffffffffff8111156129a7576129a6614490565b5b6040519080825280602002602001820160405280156129d55781602001602082028036833780820191505090505b5090505f80600190505b60016007546129ee9190614ca3565b811015612a9d578473ffffffffffffffffffffffffffffffffffffffff1660095f8381526020019081526020015f206001015f9054906101000a900473ffffffffffffffffffffffffffffffffffffffff1673ffffffffffffffffffffffffffffffffffffffff1603612a8a5780838381518110612a6f57612a6e614d7a565b5b6020026020010181815250508180612a8690614cd6565b9250505b8080612a9590614cd6565b9150506129df565b505f8167ffffffffffffffff811115612ab957612ab8614490565b5b604051908082528060200260200182016040528015612ae75781602001602082028036833780820191505090505b5090505f5b82811015612b4157838181518110612b0757612b06614d7a565b5b6020026020010151828281518110612b2257612b21614d7a565b5b6020026020010181815250508080612b3990614cd6565b915050612aec565b50809350505050919050565b60605f8060075467ffffffffffffffff811115612b6d57612b6c614490565b5b604051908082528060200260200182016040528015612ba657816020015b612b93613e66565b815260200190600190039081612b8b5790505b5090505f600190505b6001600754612bbe9190614ca3565b811015612ed35760095f8281526020019081526020015f20604051806101200160405290815f8201548152602001600182015f9054906101000a900473ffffffffffffffffffffffffffffffffffffffff1673ffffffffffffffffffffffffffffffffffffffff1673ffffffffffffffffffffffffffffffffffffffff168152602001600282018054612c5090614d4a565b80601f0160208091040260200160405190810160405280929190818152602001828054612c7c90614d4a565b8015612cc75780601f10612c9e57610100808354040283529160200191612cc7565b820191905f5260205f20905b815481529060010190602001808311612caa57829003601f168201915b50505050508152602001600382018054612ce090614d4a565b80601f0160208091040260200160405190810160405280929190818152602001828054612d0c90614d4a565b8015612d575780601f10612d2e57610100808354040283529160200191612d57565b820191905f5260205f20905b815481529060010190602001808311612d3a57829003601f168201915b50505050508152602001600482018054612d7090614d4a565b80601f0160208091040260200160405190810160405280929190818152602001828054612d9c90614d4a565b8015612de75780601f10612dbe57610100808354040283529160200191612de7565b820191905f5260205f20905b815481529060010190602001808311612dca57829003601f168201915b505050505081526020016005820154815260200160068201548152602001600782015f9054906101000a900460ff166002811115612e2857612e276140b8565b5b6002811115612e3a57612e396140b8565b5b81526020016007820160019054906101000a900473ffffffffffffffffffffffffffffffffffffffff1673ffffffffffffffffffffffffffffffffffffffff1673ffffffffffffffffffffffffffffffffffffffff1681525050828481518110612ea757612ea6614d7a565b5b60200260200101819052508280612ebd90614cd6565b9350508080612ecb90614cd6565b915050612baf565b50809250505090565b5f60055f8473ffffffffffffffffffffffffffffffffffffffff1673ffffffffffffffffffffffffffffffffffffffff1681526020019081526020015f205f8373ffffffffffffffffffffffffffffffffffffffff1673ffffffffffffffffffffffffffffffffffffffff1681526020019081526020015f205f9054906101000a900460ff16905092915050565b60065f9054906101000a900473ffffffffffffffffffffffffffffffffffffffff1681565b600b5f3373ffffffffffffffffffffffffffffffffffffffff1673ffffffffffffffffffffffffffffffffffffffff1681526020019081526020015f205f9054906101000a900460ff16613018576040517f08c379a000000000000000000000000000000000000000000000000000000000815260040161300f90614f67565b60405180910390fd5b60085f81548092919061302a90614cd6565b919050555060405180610100016040528060085481526020018473ffffffffffffffffffffffffffffffffffffffff1681526020018581526020018381526020018281526020014281526020015f600181111561308a576130896140b8565b5b81526020015f73ffffffffffffffffffffffffffffffffffffffff16815250600a5f60085481526020019081526020015f205f820151815f01556020820151816001015f6101000a81548173ffffffffffffffffffffffffffffffffffffffff021916908373ffffffffffffffffffffffffffffffffffffffff160217905550604082015181600201908161311f9190615110565b5060608201518160030190816131359190615110565b50608082015181600401908161314b9190615110565b5060a0820151816005015560c0820151816006015f6101000a81548160ff021916908360018111156131805761317f6140b8565b5b021790555060e08201518160060160016101000a81548173ffffffffffffffffffffffffffffffffffffffff021916908373ffffffffffffffffffffffffffffffffffffffff16021790555090505050505050565b5f7f01ffc9a7000000000000000000000000000000000000000000000000000000007bffffffffffffffffffffffffffffffffffffffffffffffffffffffff1916827bffffffffffffffffffffffffffffffffffffffffffffffffffffffff1916149050919050565b5f806132498361391c565b90505f73ffffffffffffffffffffffffffffffffffffffff168173ffffffffffffffffffffffffffffffffffffffff16036132bb57826040517f7e2732890000000000000000000000000000000000000000000000000000000081526004016132b29190614444565b60405180910390fd5b80915050919050565b5f60045f8381526020019081526020015f205f9054906101000a900473ffffffffffffffffffffffffffffffffffffffff169050919050565b5f33905090565b6133118383836001613955565b505050565b5f806133218461391c565b90505f73ffffffffffffffffffffffffffffffffffffffff168373ffffffffffffffffffffffffffffffffffffffff161461336257613361818486613b14565b5b5f73ffffffffffffffffffffffffffffffffffffffff168173ffffffffffffffffffffffffffffffffffffffff16146133ed576133a15f855f80613955565b600160035f8373ffffffffffffffffffffffffffffffffffffffff1673ffffffffffffffffffffffffffffffffffffffff1681526020019081526020015f205f82825403925050819055505b5f73ffffffffffffffffffffffffffffffffffffffff168573ffffffffffffffffffffffffffffffffffffffff161461346c57600160035f8773ffffffffffffffffffffffffffffffffffffffff1673ffffffffffffffffffffffffffffffffffffffff1681526020019081526020015f205f82825401925050819055505b8460025f8681526020019081526020015f205f6101000a81548173ffffffffffffffffffffffffffffffffffffffff021916908373ffffffffffffffffffffffffffffffffffffffff160217905550838573ffffffffffffffffffffffffffffffffffffffff168273ffffffffffffffffffffffffffffffffffffffff167fddf252ad1be2c89b69c2b068fc378daa952ba7f163c4a11628f55a4df523b3ef60405160405180910390a4809150509392505050565b5f73ffffffffffffffffffffffffffffffffffffffff168273ffffffffffffffffffffffffffffffffffffffff160361359157816040517f5b08ba180000000000000000000000000000000000000000000000000000000081526004016135889190614364565b60405180910390fd5b8060055f8573ffffffffffffffffffffffffffffffffffffffff1673ffffffffffffffffffffffffffffffffffffffff1681526020019081526020015f205f8473ffffffffffffffffffffffffffffffffffffffff1673ffffffffffffffffffffffffffffffffffffffff1681526020019081526020015f205f6101000a81548160ff0219169083151502179055508173ffffffffffffffffffffffffffffffffffffffff168373ffffffffffffffffffffffffffffffffffffffff167f17307eab39ab6107e8899845ad3d59bd9653f200f220920489ca2b5937696c318360405161367d9190613f95565b60405180910390a3505050565b5f8373ffffffffffffffffffffffffffffffffffffffff163b1115613836578273ffffffffffffffffffffffffffffffffffffffff1663150b7a026136cd6132fd565b8685856040518563ffffffff1660e01b81526004016136ef94939291906155fc565b6020604051808303815f875af192505050801561372a57506040513d601f19601f82011682018060405250810190613727919061565a565b60015b6137ab573d805f8114613758576040519150601f19603f3d011682016040523d82523d5f602084013e61375d565b606091505b505f8151036137a357836040517f64a0ae9200000000000000000000000000000000000000000000000000000000815260040161379a9190614364565b60405180910390fd5b805181602001fd5b63150b7a0260e01b7bffffffffffffffffffffffffffffffffffffffffffffffffffffffff1916817bffffffffffffffffffffffffffffffffffffffffffffffffffffffff19161461383457836040517f64a0ae9200000000000000000000000000000000000000000000000000000000815260040161382b9190614364565b60405180910390fd5b505b50505050565b606060405180602001604052805f815250905090565b60605f600161386084613bd7565b0190505f8167ffffffffffffffff81111561387e5761387d614490565b5b6040519080825280601f01601f1916602001820160405280156138b05781602001600182028036833780820191505090505b5090505f82602001820190505b600115613911578080600190039150507f3031323334353637383961626364656600000000000000000000000000000000600a86061a8153600a858161390657613905615685565b5b0494505f85036138bd575b819350505050919050565b5f60025f8381526020019081526020015f205f9054906101000a900473ffffffffffffffffffffffffffffffffffffffff169050919050565b808061398d57505f73ffffffffffffffffffffffffffffffffffffffff168273ffffffffffffffffffffffffffffffffffffffff1614155b15613abf575f61399c8461323e565b90505f73ffffffffffffffffffffffffffffffffffffffff168373ffffffffffffffffffffffffffffffffffffffff1614158015613a0657508273ffffffffffffffffffffffffffffffffffffffff168173ffffffffffffffffffffffffffffffffffffffff1614155b8015613a195750613a178184612edc565b155b15613a5b57826040517fa9fbf51f000000000000000000000000000000000000000000000000000000008152600401613a529190614364565b60405180910390fd5b8115613abd57838573ffffffffffffffffffffffffffffffffffffffff168273ffffffffffffffffffffffffffffffffffffffff167f8c5be1e5ebec7d5bd14f71427d1e84f3dd0314c0f7b2291e5b200ac8c7c3b92560405160405180910390a45b505b8360045f8581526020019081526020015f205f6101000a81548173ffffffffffffffffffffffffffffffffffffffff021916908373ffffffffffffffffffffffffffffffffffffffff16021790555050505050565b613b1f838383613d28565b613bd2575f73ffffffffffffffffffffffffffffffffffffffff168373ffffffffffffffffffffffffffffffffffffffff1603613b9357806040517f7e273289000000000000000000000000000000000000000000000000000000008152600401613b8a9190614444565b60405180910390fd5b81816040517f177e802f000000000000000000000000000000000000000000000000000000008152600401613bc99291906156b2565b60405180910390fd5b505050565b5f805f90507a184f03e93ff9f4daa797ed6e38ed64bf6a1f0100000000000000008310613c33577a184f03e93ff9f4daa797ed6e38ed64bf6a1f0100000000000000008381613c2957613c28615685565b5b0492506040810190505b6d04ee2d6d415b85acef81000000008310613c70576d04ee2d6d415b85acef81000000008381613c6657613c65615685565b5b0492506020810190505b662386f26fc100008310613c9f57662386f26fc100008381613c9557613c94615685565b5b0492506010810190505b6305f5e1008310613cc8576305f5e1008381613cbe57613cbd615685565b5b0492506008810190505b6127108310613ced576127108381613ce357613ce2615685565b5b0492506004810190505b60648310613d105760648381613d0657613d05615685565b5b0492506002810190505b600a8310613d1f576001810190505b80915050919050565b5f8073ffffffffffffffffffffffffffffffffffffffff168373ffffffffffffffffffffffffffffffffffffffff1614158015613ddf57508273ffffffffffffffffffffffffffffffffffffffff168473ffffffffffffffffffffffffffffffffffffffff161480613da05750613d9f8484612edc565b5b80613dde57508273ffffffffffffffffffffffffffffffffffffffff16613dc6836132c4565b73ffffffffffffffffffffffffffffffffffffffff16145b5b90509392505050565b6040518061010001604052805f81526020015f73ffffffffffffffffffffffffffffffffffffffff1681526020016060815260200160608152602001606081526020015f81526020015f6001811115613e4457613e436140b8565b5b81526020015f73ffffffffffffffffffffffffffffffffffffffff1681525090565b6040518061012001604052805f81526020015f73ffffffffffffffffffffffffffffffffffffffff1681526020016060815260200160608152602001606081526020015f81526020015f81526020015f6002811115613ec857613ec76140b8565b5b81526020015f73ffffffffffffffffffffffffffffffffffffffff1681525090565b5f604051905090565b5f80fd5b5f80fd5b5f7fffffffff0000000000000000000000000000000000000000000000000000000082169050919050565b613f2f81613efb565b8114613f39575f80fd5b50565b5f81359050613f4a81613f26565b92915050565b5f60208284031215613f6557613f64613ef3565b5b5f613f7284828501613f3c565b91505092915050565b5f8115159050919050565b613f8f81613f7b565b82525050565b5f602082019050613fa85f830184613f86565b92915050565b5f81519050919050565b5f82825260208201905092915050565b5f819050602082019050919050565b5f819050919050565b613fe981613fd7565b82525050565b5f73ffffffffffffffffffffffffffffffffffffffff82169050919050565b5f61401882613fef565b9050919050565b6140288161400e565b82525050565b5f81519050919050565b5f82825260208201905092915050565b5f5b8381101561406557808201518184015260208101905061404a565b5f8484015250505050565b5f601f19601f8301169050919050565b5f61408a8261402e565b6140948185614038565b93506140a4818560208601614048565b6140ad81614070565b840191505092915050565b7f4e487b71000000000000000000000000000000000000000000000000000000005f52602160045260245ffd5b600281106140f6576140f56140b8565b5b50565b5f819050614106826140e5565b919050565b5f614115826140f9565b9050919050565b6141258161410b565b82525050565b5f61010083015f8301516141415f860182613fe0565b506020830151614154602086018261401f565b506040830151848203604086015261416c8282614080565b915050606083015184820360608601526141868282614080565b915050608083015184820360808601526141a08282614080565b91505060a08301516141b560a0860182613fe0565b5060c08301516141c860c086018261411c565b5060e08301516141db60e086018261401f565b508091505092915050565b5f6141f1838361412b565b905092915050565b5f602082019050919050565b5f61420f82613fae565b6142198185613fb8565b93508360208202850161422b85613fc8565b805f5b85811015614266578484038952815161424785826141e6565b9450614252836141f9565b925060208a0199505060018101905061422e565b50829750879550505050505092915050565b5f6020820190508181035f8301526142908184614205565b905092915050565b5f82825260208201905092915050565b5f6142b28261402e565b6142bc8185614298565b93506142cc818560208601614048565b6142d581614070565b840191505092915050565b5f6020820190508181035f8301526142f881846142a8565b905092915050565b61430981613fd7565b8114614313575f80fd5b50565b5f8135905061432481614300565b92915050565b5f6020828403121561433f5761433e613ef3565b5b5f61434c84828501614316565b91505092915050565b61435e8161400e565b82525050565b5f6020820190506143775f830184614355565b92915050565b6143868161400e565b8114614390575f80fd5b50565b5f813590506143a18161437d565b92915050565b5f80604083850312156143bd576143bc613ef3565b5b5f6143ca85828601614393565b92505060206143db85828601614316565b9150509250929050565b5f805f606084860312156143fc576143fb613ef3565b5b5f61440986828701614393565b935050602061441a86828701614393565b925050604061442b86828701614316565b9150509250925092565b61443e81613fd7565b82525050565b5f6020820190506144575f830184614435565b92915050565b5f6020828403121561447257614471613ef3565b5b5f61447f84828501614393565b91505092915050565b5f80fd5b5f80fd5b7f4e487b71000000000000000000000000000000000000000000000000000000005f52604160045260245ffd5b6144c682614070565b810181811067ffffffffffffffff821117156144e5576144e4614490565b5b80604052505050565b5f6144f7613eea565b905061450382826144bd565b919050565b5f67ffffffffffffffff82111561452257614521614490565b5b61452b82614070565b9050602081019050919050565b828183375f83830152505050565b5f61455861455384614508565b6144ee565b9050828152602081018484840111156145745761457361448c565b5b61457f848285614538565b509392505050565b5f82601f83011261459b5761459a614488565b5b81356145ab848260208601614546565b91505092915050565b5f805f80608085870312156145cc576145cb613ef3565b5b5f85013567ffffffffffffffff8111156145e9576145e8613ef7565b5b6145f587828801614587565b945050602061460687828801614393565b935050604085013567ffffffffffffffff81111561462757614626613ef7565b5b61463387828801614587565b925050606085013567ffffffffffffffff81111561465457614653613ef7565b5b61466087828801614587565b91505092959194509250565b6003811061467d5761467c6140b8565b5b50565b5f81905061468d8261466c565b919050565b5f61469c82614680565b9050919050565b6146ac81614692565b82525050565b5f610120820190506146c65f83018c614435565b6146d3602083018b614355565b81810360408301526146e5818a6142a8565b905081810360608301526146f981896142a8565b9050818103608083015261470d81886142a8565b905061471c60a0830187614435565b61472960c0830186614435565b61473660e08301856146a3565b614744610100830184614355565b9a9950505050505050505050565b5f81519050919050565b5f82825260208201905092915050565b5f819050602082019050919050565b5f6147868383613fe0565b60208301905092915050565b5f602082019050919050565b5f6147a882614752565b6147b2818561475c565b93506147bd8361476c565b805f5b838110156147ed5781516147d4888261477b565b97506147df83614792565b9250506001810190506147c0565b5085935050505092915050565b5f6020820190508181035f830152614812818461479e565b905092915050565b5f80604083850312156148305761482f613ef3565b5b5f61483d85828601614316565b925050602061484e85828601614316565b9150509250929050565b61486181613f7b565b811461486b575f80fd5b50565b5f8135905061487c81614858565b92915050565b5f806040838503121561489857614897613ef3565b5b5f6148a585828601614393565b92505060206148b68582860161486e565b9150509250929050565b5f67ffffffffffffffff8211156148da576148d9614490565b5b6148e382614070565b9050602081019050919050565b5f6149026148fd846148c0565b6144ee565b90508281526020810184848401111561491e5761491d61448c565b5b614929848285614538565b509392505050565b5f82601f83011261494557614944614488565b5b81356149558482602086016148f0565b91505092915050565b5f805f806080858703121561497657614975613ef3565b5b5f61498387828801614393565b945050602061499487828801614393565b93505060406149a587828801614316565b925050606085013567ffffffffffffffff8111156149c6576149c5613ef7565b5b6149d287828801614931565b91505092959194509250565b6149e78161410b565b82525050565b5f61010082019050614a015f83018b614435565b614a0e602083018a614355565b8181036040830152614a2081896142a8565b90508181036060830152614a3481886142a8565b90508181036080830152614a4881876142a8565b9050614a5760a0830186614435565b614a6460c08301856149de565b614a7160e0830184614355565b9998505050505050505050565b5f81519050919050565b5f82825260208201905092915050565b5f819050602082019050919050565b614ab081614692565b82525050565b5f61012083015f830151614acc5f860182613fe0565b506020830151614adf602086018261401f565b5060408301518482036040860152614af78282614080565b91505060608301518482036060860152614b118282614080565b91505060808301518482036080860152614b2b8282614080565b91505060a0830151614b4060a0860182613fe0565b5060c0830151614b5360c0860182613fe0565b5060e0830151614b6660e0860182614aa7565b50610100830151614b7b61010086018261401f565b508091505092915050565b5f614b918383614ab6565b905092915050565b5f602082019050919050565b5f614baf82614a7e565b614bb98185614a88565b935083602082028501614bcb85614a98565b805f5b85811015614c065784840389528151614be78582614b86565b9450614bf283614b99565b925060208a01995050600181019050614bce565b50829750879550505050505092915050565b5f6020820190508181035f830152614c308184614ba5565b905092915050565b5f8060408385031215614c4e57614c4d613ef3565b5b5f614c5b85828601614393565b9250506020614c6c85828601614393565b9150509250929050565b7f4e487b71000000000000000000000000000000000000000000000000000000005f52601160045260245ffd5b5f614cad82613fd7565b9150614cb883613fd7565b9250828201905080821115614cd057614ccf614c76565b5b92915050565b5f614ce082613fd7565b91507fffffffffffffffffffffffffffffffffffffffffffffffffffffffffffffffff8203614d1257614d11614c76565b5b600182019050919050565b7f4e487b71000000000000000000000000000000000000000000000000000000005f52602260045260245ffd5b5f6002820490506001821680614d6157607f821691505b602082108103614d7457614d73614d1d565b5b50919050565b7f4e487b71000000000000000000000000000000000000000000000000000000005f52603260045260245ffd5b5f606082019050614dba5f830186614355565b614dc76020830185614435565b614dd46040830184614355565b949350505050565b7f4f7267616e20646f6573206e6f742065786973740000000000000000000000005f82015250565b5f614e10601483614298565b9150614e1b82614ddc565b602082019050919050565b5f6020820190508181035f830152614e3d81614e04565b9050919050565b5f819050815f5260205f209050919050565b5f8154614e6281614d4a565b614e6c8186614298565b9450600182165f8114614e865760018114614e9c57614ece565b60ff198316865281151560200286019350614ece565b614ea585614e44565b5f5b83811015614ec657815481890152600182019150602081019050614ea7565b808801955050505b50505092915050565b5f6020820190508181035f830152614eef8184614e56565b905092915050565b7f4f6e6c7920486f73706974616c732063616e2063616c6c20746869732066756e5f8201527f6374696f6e000000000000000000000000000000000000000000000000000000602082015250565b5f614f51602583614298565b9150614f5c82614ef7565b604082019050919050565b5f6020820190508181035f830152614f7e81614f45565b9050919050565b5f6020601f8301049050919050565b5f82821b905092915050565b5f60088302614fcf7fffffffffffffffffffffffffffffffffffffffffffffffffffffffffffffffff82614f94565b614fd98683614f94565b95508019841693508086168417925050509392505050565b5f819050919050565b5f61501461500f61500a84613fd7565b614ff1565b613fd7565b9050919050565b5f819050919050565b61502d83614ffa565b6150416150398261501b565b848454614fa0565b825550505050565b5f90565b615055615049565b615060818484615024565b505050565b5b81811015615083576150785f8261504d565b600181019050615066565b5050565b601f8211156150c85761509981614e44565b6150a284614f85565b810160208510156150b1578190505b6150c56150bd85614f85565b830182615065565b50505b505050565b5f82821c905092915050565b5f6150e85f19846008026150cd565b1980831691505092915050565b5f61510083836150d9565b9150826002028217905092915050565b6151198261402e565b67ffffffffffffffff81111561513257615131614490565b5b61513c8254614d4a565b615147828285615087565b5f60209050601f831160018114615178575f8415615166578287015190505b61517085826150f5565b8655506151d7565b601f19841661518686614e44565b5f5b828110156151ad57848901518255600182019150602085019450602081019050615188565b868310156151ca57848901516151c6601f8916826150d9565b8355505b6001600288020188555050505b505050505050565b7f526563697069656e74206e6f7420466f756e64000000000000000000000000005f82015250565b5f615213601383614298565b915061521e826151df565b602082019050919050565b5f6020820190508181035f83015261524081615207565b9050919050565b7f526563697069656e7420646f6573206e6f7420657869737400000000000000005f82015250565b5f61527b601883614298565b915061528682615247565b602082019050919050565b5f6020820190508181035f8301526152a88161526f565b9050919050565b5f81905092915050565b5f819050815f5260205f209050919050565b5f81546152d781614d4a565b6152e181866152af565b9450600182165f81146152fb576001811461531057615342565b60ff1983168652811515820286019350615342565b615319856152b9565b5f5b8381101561533a5781548189015260018201915060208101905061531b565b838801955050505b50505092915050565b5f61535682846152cb565b915081905092915050565b7f54686973206f7267616e20446f6573206e6f74206d6174636820596f757220525f8201527f65717569726d656e740000000000000000000000000000000000000000000000602082015250565b5f6153bb602983614298565b91506153c682615361565b604082019050919050565b5f6020820190508181035f8301526153e8816153af565b9050919050565b7f4f7267616e206973206e6f7420617661696c61626c65000000000000000000005f82015250565b5f615423601683614298565b915061542e826153ef565b602082019050919050565b5f6020820190508181035f83015261545081615417565b9050919050565b7f4f6e6c792061646d696e2063616e2063616c6c20746869732066756e6374696f5f8201527f6e00000000000000000000000000000000000000000000000000000000000000602082015250565b5f6154b1602183614298565b91506154bc82615457565b604082019050919050565b5f6020820190508181035f8301526154de816154a5565b9050919050565b5f81905092915050565b5f6154f98261402e565b61550381856154e5565b9350615513818560208601614048565b80840191505092915050565b5f61552a82856154ef565b915061553682846154ef565b91508190509392505050565b7f446f6e6f72206e6f7420666f756e6400000000000000000000000000000000005f82015250565b5f615576600f83614298565b915061558182615542565b602082019050919050565b5f6020820190508181035f8301526155a38161556a565b9050919050565b5f81519050919050565b5f82825260208201905092915050565b5f6155ce826155aa565b6155d881856155b4565b93506155e8818560208601614048565b6155f181614070565b840191505092915050565b5f60808201905061560f5f830187614355565b61561c6020830186614355565b6156296040830185614435565b818103606083015261563b81846155c4565b905095945050505050565b5f8151905061565481613f26565b92915050565b5f6020828403121561566f5761566e613ef3565b5b5f61567c84828501615646565b91505092915050565b7f4e487b71000000000000000000000000000000000000000000000000000000005f52601260045260245ffd5b5f6040820190506156c55f830185614355565b6156d26020830184614435565b939250505056fea264697066735822122018c8c3c4bf8f51d605ddc7be015e21b5932601972893c8d331778d0fbe3cb80564736f6c63430008150033",
  "immutableReferences": {},
  "source": "// SPDX-License-Identifier: MIT\npragma solidity ^0.8.20;\n\n// Import ERC721 token standard\nimport \"@openzeppelin/contracts/token/ERC721/ERC721.sol\";\n\ncontract OrganChain is ERC721 {\n    // Define variables\n    address public admin;\n    uint256 public donorCounter;\n    uint256 public recipientCounter;\n\n    enum OrganStatus {Register, Available, Transplanted}\n    enum RecipientStatus {Registered, Transplanted}\n\n    struct Organ {\n        uint256 id;\n        address donor;\n        string donorName;\n        string donorAadharNumber;\n        string organType;\n        uint256 preservationTime;\n        uint256 timestamp;\n        OrganStatus status;\n        address to;\n    }\n    struct Recipient {\n        uint256 id;\n        address recipient;\n        string recipientName;\n        string recipientAadharnumber;\n        string organType;\n        uint timestamp;\n        RecipientStatus status;\n        address from;\n    }\n\n    mapping(uint256 =>Organ) public organs;\n    mapping(uint256 =>Recipient) public recipient;\n    mapping(address => bool) public isHospital;\n\n    // Events\n    event StatusUpdated(uint256 indexed organId, address indexed donor, string organType);\n    event OrganTransplanted(uint256 indexed organId, address indexed donor, address indexed recipient);\n\n    // Constructor\n    constructor(address _admin) ERC721(\"OrganChainToken\", \"OCT\") {\n        admin = _admin;\n    }\n\n    // Modifier for admin-only functions\n    modifier onlyAdmin() {\n        require(msg.sender == admin, \"Only admin can call this function\");\n        _;\n    }\n\n    // Modifier for only Hospital\n    modifier onlyHospital() {\n        require(isHospital[msg.sender],\"Only Hospitals can call this function\");\n        _;\n    }\n\n    //Register Recipient\n    function registerRecipient(\n        string memory _recipientName,\n        address _recipientAddress,\n        string memory _recipientAadharNumber,\n        string memory _organType\n    ) external onlyHospital {\n        recipientCounter++;\n        recipient[recipientCounter] = Recipient(\n                recipientCounter,\n                _recipientAddress,\n                _recipientName,\n                _recipientAadharNumber,\n                _organType,\n                block.timestamp,\n                RecipientStatus.Registered,\n                0x0000000000000000000000000000000000000000\n            );\n    }\n\n    // Register organ donation\n    function registerOrgan(\n        string memory _donorName,\n        address _donorAddress,\n        string memory _donorAadharNumber,\n        string memory _organType\n    ) external onlyHospital {\n        donorCounter++;\n            organs[donorCounter] = Organ(\n                donorCounter,\n                _donorAddress,\n                _donorName,\n                _donorAadharNumber,\n                _organType,\n                6,\n                block.timestamp,\n                OrganStatus.Register,\n                0x0000000000000000000000000000000000000000\n            );\n    }\n\n    //Register Hospital\n    function registerHospital(address _hospital) external onlyAdmin{\n        isHospital[_hospital] = true;\n    }\n\n    // OrganStatus Update\n    function updateOrganStatus(uint256 _organId) external{\n         require(organs[_organId].donor != address(0), \"Organ does not exist\");\n         organs[_organId].status = OrganStatus.Available;\n         emit StatusUpdated(_organId, organs[_organId].donor, organs[_organId].organType);\n    }\n\n    // Transplant organ\n    function transplantOrgan(uint256 _organId, uint256 _recipientId ) external onlyHospital {\n        require(organs[_organId].donor != address(0), \"Organ does not exist\");\n        require(recipient[_recipientId].recipient != address(0),\"Recipient does not exist\");\n        require(keccak256(bytes(organs[_organId].organType)) == keccak256(bytes(recipient[_recipientId].organType)),\"This organ Does not match Your Requirment\");\n        require(organs[_organId].status == OrganStatus.Available, \"Organ is not available\");\n        organs[_organId].status = OrganStatus.Transplanted;\n        organs[_organId].to = recipient[_recipientId].recipient;\n        recipient[_recipientId].status = RecipientStatus.Transplanted;\n        recipient[_recipientId].from = organs[_organId].donor;\n        emit OrganTransplanted(_organId,organs[_organId].donor, recipient[_recipientId].recipient);\n    }\n\n    //check isDonor\n    function isDonor(address _donor)public view returns(bool){\n        for(uint256 i=1; i<donorCounter + 1; i++){\n            if(organs[i].donor == _donor){\n                return true;\n            }\n        }\n        return false;\n    }\n\n    // check isRecipient\n    function isRecipient(address _recipient)public view returns(bool){\n        for (uint i = 1; i<recipientCounter + 1; i++){\n            if(recipient[i].recipient == _recipient){\n                return true;\n            }\n        }\n        return false;\n    }\n    \n\n    //Get OrganId from Account Aaddress\n    function getOrganId(address _donorAddress)public view  returns(uint256[] memory){\n        require(isDonor(_donorAddress),\"Donor not found\");\n        uint[] memory ids = new uint256[](donorCounter);\n        uint count = 0;\n        for(uint i = 1;i<donorCounter + 1;i++){\n            if(organs[i].donor == _donorAddress){\n                ids[count] = i;\n                count++;\n            }\n        }\n        uint256[] memory result = new uint256[](count);\n        for (uint256 j = 0; j < count; j++) {\n            result[j] = ids[j];\n        }\n        return result;\n    }\n\n    //Get RecipientId from Account Aaddress\n    function getRecipientId(address _recipientAddress)public view  returns(uint256[] memory){\n        require(isRecipient(_recipientAddress),\"Recipient not Found\");\n        uint[] memory ids = new uint256[](recipientCounter);\n        uint count = 0;\n        for(uint i = 1;i<donorCounter + 1;i++){\n            if(recipient[i].recipient == _recipientAddress){\n                ids[count] = i;\n                count++;\n            }\n        }\n        uint256[] memory result = new uint256[](count);\n        for (uint256 j = 0; j < count; j++) {\n            result[j] = ids[j];\n        }\n        return result;\n    }\n\n    // Get all available organs\n    function getAvailableOrgans() external view returns (Organ[] memory) {\n        uint256 count = 0;\n        uint256 index = 0;\n        for (uint256 i=1;i<donorCounter+1;i++){\n            if(organs[i].status == OrganStatus.Available){\n                count++;\n            }\n        }\n        Organ[] memory availableOrgans = new Organ[](count);\n        for (uint256 i=1;i<donorCounter+1;i++){\n            if(organs[i].status == OrganStatus.Available){\n                availableOrgans[index] = organs[i];\n                index++;\n            }\n        }\n        return availableOrgans;\n    }\n    // Get all available Recipients\n    function getAvailableRecipients() external view returns (Recipient[] memory) {\n        uint256 count = 0;\n        uint256 index = 0;\n        for (uint256 i=1;i<recipientCounter+1;i++){\n            if(recipient[i].status == RecipientStatus.Registered){\n                count++;\n            }\n        }\n        Recipient[] memory availableRecipients = new Recipient[](count);\n        for (uint256 i=1;i<recipientCounter+1;i++){\n            if(recipient[i].status == RecipientStatus.Registered){\n                availableRecipients[index] = recipient[i];\n                index++;\n            }\n        }\n        return availableRecipients;\n    }\n\n   // Get All Organs Registered Available Transplanted\n    function getAllOrgans()external view returns(Organ[] memory){\n        uint256 index = 0;\n        Organ[] memory result = new Organ[](donorCounter);\n        for(uint i=1;i<donorCounter + 1; i++){\n            result[index] = organs[i];\n            index++;\n        }\n        return result;\n    }\n\n    //Get All Recipients\n    function getAllRecipients()external view returns(Recipient[] memory){\n        uint256 index = 0;\n        Recipient[] memory result = new Recipient[](recipientCounter);\n        for(uint256 i=1; i<recipientCounter + 1;i++){\n            result[index] = recipient[i];\n            index++;\n        }\n        return result;\n    }\n}",
  "sourcePath": "/home/aalan294/Hackverse2k24/dapp/contracts/OrganChain.sol",
  "compiler": {
    "name": "solc",
    "version": "0.8.21+commit.d9974bed.Emscripten.clang"
  },
  "schemaVersion": "3.4.16",
  "updatedAt": "2024-04-15T12:17:18.536Z",
  "devdoc": {
    "errors": {
      "ERC721IncorrectOwner(address,uint256,address)": [
        {
          "details": "Indicates an error related to the ownership over a particular token. Used in transfers.",
          "params": {
            "owner": "Address of the current owner of a token.",
            "sender": "Address whose tokens are being transferred.",
            "tokenId": "Identifier number of a token."
          }
        }
      ],
      "ERC721InsufficientApproval(address,uint256)": [
        {
          "details": "Indicates a failure with the `operator`s approval. Used in transfers.",
          "params": {
            "operator": "Address that may be allowed to operate on tokens without being their owner.",
            "tokenId": "Identifier number of a token."
          }
        }
      ],
      "ERC721InvalidApprover(address)": [
        {
          "details": "Indicates a failure with the `approver` of a token to be approved. Used in approvals.",
          "params": {
            "approver": "Address initiating an approval operation."
          }
        }
      ],
      "ERC721InvalidOperator(address)": [
        {
          "details": "Indicates a failure with the `operator` to be approved. Used in approvals.",
          "params": {
            "operator": "Address that may be allowed to operate on tokens without being their owner."
          }
        }
      ],
      "ERC721InvalidOwner(address)": [
        {
          "details": "Indicates that an address can't be an owner. For example, `address(0)` is a forbidden owner in EIP-20. Used in balance queries.",
          "params": {
            "owner": "Address of the current owner of a token."
          }
        }
      ],
      "ERC721InvalidReceiver(address)": [
        {
          "details": "Indicates a failure with the token `receiver`. Used in transfers.",
          "params": {
            "receiver": "Address to which tokens are being transferred."
          }
        }
      ],
      "ERC721InvalidSender(address)": [
        {
          "details": "Indicates a failure with the token `sender`. Used in transfers.",
          "params": {
            "sender": "Address whose tokens are being transferred."
          }
        }
      ],
      "ERC721NonexistentToken(uint256)": [
        {
          "details": "Indicates a `tokenId` whose `owner` is the zero address.",
          "params": {
            "tokenId": "Identifier number of a token."
          }
        }
      ]
    },
    "events": {
      "Approval(address,address,uint256)": {
        "details": "Emitted when `owner` enables `approved` to manage the `tokenId` token."
      },
      "ApprovalForAll(address,address,bool)": {
        "details": "Emitted when `owner` enables or disables (`approved`) `operator` to manage all of its assets."
      },
      "Transfer(address,address,uint256)": {
        "details": "Emitted when `tokenId` token is transferred from `from` to `to`."
      }
    },
    "kind": "dev",
    "methods": {
      "approve(address,uint256)": {
        "details": "See {IERC721-approve}."
      },
      "balanceOf(address)": {
        "details": "See {IERC721-balanceOf}."
      },
      "getApproved(uint256)": {
        "details": "See {IERC721-getApproved}."
      },
      "isApprovedForAll(address,address)": {
        "details": "See {IERC721-isApprovedForAll}."
      },
      "name()": {
        "details": "See {IERC721Metadata-name}."
      },
      "ownerOf(uint256)": {
        "details": "See {IERC721-ownerOf}."
      },
      "safeTransferFrom(address,address,uint256)": {
        "details": "See {IERC721-safeTransferFrom}."
      },
      "safeTransferFrom(address,address,uint256,bytes)": {
        "details": "See {IERC721-safeTransferFrom}."
      },
      "setApprovalForAll(address,bool)": {
        "details": "See {IERC721-setApprovalForAll}."
      },
      "supportsInterface(bytes4)": {
        "details": "See {IERC165-supportsInterface}."
      },
      "symbol()": {
        "details": "See {IERC721Metadata-symbol}."
      },
      "tokenURI(uint256)": {
        "details": "See {IERC721Metadata-tokenURI}."
      },
      "transferFrom(address,address,uint256)": {
        "details": "See {IERC721-transferFrom}."
      }
    },
    "version": 1
  },
  "userdoc": {
    "kind": "user",
    "methods": {},
    "version": 1
  }
}